:020000040000fa
:080000000002040000000000f2
:020000040000fa
:100400008fa120000e7f22000e0188000000000056
:1004100000012000200288000c0007004078210025
:100420000100200011000700000020000000e00093
:10043000020032000000020000000000461402002a
:10044000000000000040da000000fe004440a90067
:10045000a01620000000e000030032000000200091
:10046000a00188004440a800000006009101880017
:10047000800078000000eb0015003700e2804000ab
:1004800032a0b4009101ba00e280400032a0b40072
:100490009102ba00e280400032a0b4000002eb00fa
:1004a000472bde00f507b200602ce10004003a00a3
:1004b0000059eb008301e900fdff3e000400370016
:1004c0006128e100010032000082eb000400070017
:1004d0001101ba000200e000e8ff3a000000060047
:1004e0003159ba008301e9000c0032002159ba00e9
:1004f0008301e900080032000400e00003003a0034
:10050000e280400032a0b400f5ff370011d9ba00f4
:100510008301e900faff3a008100e800e180400031
:1005200032a0b4000000060000000000000000003f
:1005300000000000000000000000000000000000bb
:1005400000000000000000000000000000000000ab
:100550000040da000000fe000002780002003700d0
:10056000315a78000201e900e00f5100fcff3a0027
:10057000000006000002780002003700015a7800ef
:100580000201e900e00f5100fcff3a000000060004
:020000040000fa
:10000800a8020000a8020000a8020000a802000040
:10001800a8020000a8020000a8020000a802000030
:10002800a8020000a8020000a8020000a802000020
:10003800a8020000a8020000a8020000a802000010
:10004800a8020000a8020000a8020000a802000000
:10005800a8020000c0150000a8020000a8020000c5
:10006800a8020000a8020000a8020000a8020000e0
:10007800a8020000a8020000a8020000a8020000d0
:10008800a8020000a8020000a8020000a8020000c0
:10009800a8020000a8020000a8020000a8020000b0
:1000a800a8020000a8020000a8020000a8020000a0
:1000b800a8020000a8020000a8020000a802000090
:1000c800a8020000a8020000a8020000a802000080
:1000d800a8020000a8020000a8020000a802000070
:1000e800a8020000a8020000a8020000a802000060
:1000f800a8020000a8020000a8020000a802000050
:10010800a8020000a8020000a8020000a80200003f
:10011800a8020000a8020000a8020000a80200002f
:10012800a8020000a8020000a8020000a80200001f
:10013800a8020000a8020000a8020000a80200000f
:10014800a8020000a8020000a8020000a8020000ff
:10015800a8020000a8020000a8020000a8020000ef
:10016800a8020000a8020000a8020000a8020000df
:10017800a8020000a8020000aa0f0000a8020000c0
:10018800a8020000a8020000a8020000a8020000bf
:10019800a8020000a8020000a8020000a8020000af
:1001a800a8020000a8020000a8020000a80200009f
:1001b800a8020000a8020000a8020000a80200008f
:1001c800a8020000a8020000a8020000a80200007f
:1001d800a8020000a8020000a8020000a80200006f
:1001e800a8020000a8020000a8020000a80200005f
:0801f800a8020000a8020000ab
:020000040000fa
:10020800a8020000a8020000a8020000a80200003e
:10021800a8020000a8020000a8020000a80200002e
:10022800a8020000a8020000a8020000a80200001e
:10023800a8020000a8020000a8020000a80200000e
:10024800a8020000a8020000a8020000a8020000fe
:10025800a8020000c0150000a8020000a8020000c3
:10026800a8020000a8020000a8020000a8020000de
:10027800a8020000a8020000a8020000a8020000ce
:10028800a8020000a8020000a8020000a8020000be
:10029800a8020000a8020000a8020000a8020000ae
:1002a800a8020000a8020000a8020000a80200009e
:1002b800a8020000a8020000a8020000a80200008e
:1002c800a8020000a8020000a8020000a80200007e
:1002d800a8020000a8020000a8020000a80200006e
:1002e800a8020000a8020000a8020000a80200005e
:1002f800a8020000a8020000a8020000a80200004e
:10030800a8020000a8020000a8020000a80200003d
:10031800a8020000a8020000a8020000a80200002d
:10032800a8020000a8020000a8020000a80200001d
:10033800a8020000a8020000a8020000a80200000d
:10034800a8020000a8020000a8020000a8020000fd
:10035800a8020000a8020000a8020000a8020000ed
:10036800a8020000a8020000a8020000a8020000dd
:10037800a8020000a8020000aa0f0000a8020000be
:10038800a8020000a8020000a8020000a8020000bd
:10039800a8020000a8020000a8020000a8020000ad
:1003a800a8020000a8020000a8020000a80200009d
:1003b800a8020000a8020000a8020000a80200008d
:1003c800a8020000a8020000a8020000a80200007d
:1003d800a8020000a8020000a8020000a80200006d
:1003e800a8020000a8020000a8020000a80200005d
:0803f800a8020000a8020000a9
:020000040000fa
:020000040001f9
:0457fc007f3f0000eb
:020000040000fa
:020000040001f9
:0457f8009d1b0000f5
:020000040000fa
:020000040001f9
:0457f400ffff0000b3
:020000040000fa
:020000040001f9
:0457f000ffff0000b7
:020000040000fa
:100590001201000000020000ef020000010800004c
:1005a000a0a0000004000000010000000102000003
:1005b00005010000090200004600000002010000e1
:1005c00002800000320800000b0000000202000060
:1005d0000200000002090000040000000001000009
:1005e00002020000000300000524000000100000cb
:1005f000010400002402000006050000240600009b
:100600000001000007050000810300000a0000004f
:100610000109000004010000000200000a000000bf
:1006200000040000070500008202000040000000f6
:100630000107000005020000024000000001000068
:100640000403000009040000300300005300000010
:1006500069000000670000006e00000061000000fb
:100660006c0000002000000031000000310000009c
:1006700020000000530000006f0000006600000032
:1006800074000000770000006100000072000000ac
:1006900065000000200000004c0000004c0000003d
:1006a000430000002e0000001a0300005500000067
:1006b0005300000042000000200000004300000042
:1006c000440000004300000020000000540000002f
:1006d0006500000073000000740000001c030000af
:1006e0004300000044000000430000002000000020
:1006f000490000006e00000074000000650000006a
:10070000720000006600000061000000630000004d
:1007100065000000260300004300000044000000c4
:1007200043000000200000004400000061000000c1
:10073000740000006100000020000000490000007b
:100740006e000000740000006500000072000000f0
:10075000660000006100000063000000650000000a
:100760007803000046000000410000004b0000003c
:10077000450000002000000053000000650000005c
:100780007200000069000000610000006c000000c1
:10079000200000004e000000750000006d00000009
:1007a0006200000065000000720000003a000000d6
:1007b00020000000440000006f0000006e000000f8
:1007c00027000000740000002000000073000000fb
:1007d00068000000690000007000000020000000b8
:1007e00061000000200000007000000072000000a6
:1007f0006f0000006400000075000000630000004e
:1008000074000000200000006c000000690000007f
:100810006b00000065000000200000007400000074
:100820006800000069000000730000002e00000056
:1008300020000000500000004c00000045000000b7
:1008400041000000530000004500000021000000ae
:10085000010000000148000042310000303000007b
:040860003100000063
:020000040000fa
:100864000000fa000002eb00144588000002eb00cf
:10087400244588000002eb00344588000002eb00a8
:10088400044588000080fa00000006000600fa0013
:10089400342580000400a1000410a1003425880040
:1008a4000002eb00642488000002eb00842488002a
:1008b4009404a800a804a9008400200054248800fb
:1008c40084002000542488008400200054248800dc
:1008d4008400200054248800f40f2000542488004d
:1008e400f40f2000742488008c64a8008ce4a80011
:1008f4008c04a80004a02000240798005e42900005
:100904000482fb00c4248800020220008000eb0063
:10091400a04a200016ff0700a54a2000150278000f
:100924000400a000840a7800a54a2000150278007b
:100934000440a100840a7800a54a2000150278002a
:100944000430a000840a7800a54a2000150278002b
:100954000420a000840a7800a54a2000150278002b
:100964000410a100840a780014c0b300044f780076
:100974001b003700a54a20001e4078000082fb00bf
:100984000402420004824200140798009e02900070
:10099400150278000400a000840a78009e029000ea
:1009a400150278000440a000840a78009e0290009a
:1009b400150278000430a000840a78009e0290009a
:1009c400150278000420a000840a78009e0290009a
:1009d400150278000410a100840a78001e4fe80074
:1009e4001e427800e24f5200e2ff36000002eb00a4
:1009f400b42488000042eb00044078009be8b70070
:100a04000042eb00044078009de8b7000042eb0090
:100a140004407800b0e8b7000042eb00044f7800cf
:100a2400080037009e4278000582fb00c322dd00e7
:100a3400848b20008482420044c0b300844a78003e
:100a44001e4fe8001e427800e24f5200f5ff3600c8
:100a5400820120008000eb0000a02000c4fe0700fb
:100a640064458000145088008400280004508800e5
:100a7400744580003450880084002000245088008d
:100a840014c0b300044f78003f0037001e437800c1
:100a94000682fb00040242001e4078008082fb00b4
:100aa400432bdd00258b200085024300950278004e
:100ab4004223dd0024a0200004024300050a78003c
:100ac4009e4278000582fb00040242000403780081
:100ad4001e4078000082fb004322dd00e402420055
:100ae400248b200004824200144278008482fb009c
:100af40004802800848272004233dd0004a02000b8
:100b040004024300050a78009e4278000582fb0037
:100b1400040242000402e8001e4378008682fb00bf
:100b2400c32add000583e800258b200085024300ed
:100b3400950278004223dd0024a020000402430033
:100b4400050a78001e4078000082fb00040242007f
:100b54000403e8009e4278000582fb004322dd0086
:100b6400e4024200248b20000482420014429000dc
:100b74008482fb004233dd0004a020000402430011
:100b8400050a78001e4fe8001e427800e24f52002a
:100b9400beff36008804a80031ff07009ec0a800ed
:100ba4000080fa00000006000000fa00840028001b
:100bb400045088000080fa00000006000000fa00db
:100bc40084402800245088000080fa0000000600b9
:100bd4000200fa00004f78009e4278000582fb0074
:100be400040242000403e8009e4278000582fb00f0
:100bf4004322dd00e4024200248b200004824200f0
:100c0400144290008482fb00044028008482720015
:100c14004233dd0004a0200004024300050a7800ea
:100c24000080fa00000006000200fa00004f78007d
:100c34009e4278000582fb0004024200c222dd00cd
:100c440004a020000482420005402800050a780020
:100c54000080fa00000006000000fa000042eb00e9
:100c64000440780005eab70004802c002450880072
:100c74000080fa00000006000400fa001007980043
:100c84000040eb00fe030700004278000404a200c9
:100c9400e04f52001d003200048b20001442780003
:100ca4000482fb006802620004f0a7000402ea0068
:100cb4000402ea004f22de00044f78000042eb00f9
:100cc4000440780005eab7001e427800e04f520065
:100cd400050032009e02900004802c000482720001
:100ce40024508800040037009e02900004802800ed
:100cf4000482720024508800048b2000144278007f
:100d04000434a20004407800b0e8b7000080fa0080
:100d1400000006000800fa00100798002107980058
:100d2400320798002e029000e80f520001003600ae
:100d340084002000044f78001e4078000082fb00ed
:100d4400be029000850f52000100360005027800b3
:100d5400044f780014c0b3002e039000be0290002c
:100d6400850f5300010039000042eb000440780075
:100d74009fe8b7001e4278008482fb00744580001f
:100d8400050178009e00900004007800f1fd070042
:100d94009e0290001e4378000682fb0004824200fb
:100da40014458800be0290002e029000850f520068
:100db40001003600050278001e4078008082fb00a6
:100dc4000502520034458800048b20001442780048
:100dd4000434a00004407800b0e8b7009e427800d4
:100de4000582fb0004007800a3ff07000080fa00de
:100df400000006001800fa000042eb00044f7800df
:100e040064458000140798001e029000144290006c
:100e1400e64f52006b003a001e02900094427800a4
:100e240004c8b30084cf520066003a009e029000ca
:100e3400254290000483fb00354290000482fb00ad
:100e44004822dd00060272004822de004447980072
:100e54009e029000254290000483fb0035429000de
:100e64000482fb004822dd00060272005447980009
:100e74004e429000e14f520010003a009e02900052
:100e8400654290000483fb00754290000482fb00dd
:100e94004822dd000602720084027800842c2800b7
:100ea400144278000482fb00050178008400780075
:100eb400802c280097ff0700b30137004e429000b2
:100ec400e24f520020003a005e429000e04f520090
:100ed4000200320039ff0700ab0137005e42900088
:100ee4000482fb0084024200c48e2000048242007b
:100ef40014007800300798009e029000654290002c
:100f04000483fb00754290000482fb004822dd004c
:100f14000602720004037800be029000254290008d
:100f24008483fb00354290000482fb004822dd00ec
:100f34000702720006017800840078003e009000e9
:100f440074ff0700900137004e429000e34f5200b7
:100f54001a003a0070024700840078005e40900056
:100f64004f07070000027800440798004e029000e3
:100f7400e00f520002003d0010ff0700820137001d
:100f84009e029000654290000483fb00754290002d
:100f94000482fb004822dd0006027200040378008c
:100fa400ce0290000e0a90000601780085007800b9
:100fb4000400780057ff070073013700fffe0700a5
:100fc400710137001e02900014429000e54f520058
:100fd4000f003a0014c0b300044078009be8b70047
:100fe4009e029000254290000483fb00354290004d
:100ff4000482fb004822dd000602720004427800ed
:10100400044078009ce8b70013ff07005e01370036
:101014001e02900014429000e94f52000c003a0066
:101024009e029000254290000483fb00354290000c
:101034000482fb004822dd0006027200244f98005f
:1010440005ff07002e4890009de8b7004e013700c9
:101054001e02900014429000e84f52000c003a0027
:101064009e029000654290000483fb00754290004c
:101074000482fb004822dd000602720004017800ad
:1010840011002000d089200022ff07003e01370014
:101094001e02900014429000e04f52005b003a00a0
:1010a4001e029000144278007f426200e04f52001a
:1010b40010003a000002eb00140f98009e0290000a
:1010c400654290000483fb00754290000482fb009b
:1010d4004822dd0006027200840278007202470092
:1010e40005017800210020000400780009ff0700b2
:1010f400250137001e029000144278007f426200ee
:10110400e24f52003f003a009e0290004542900098
:101114000483fb00554290000482fb004822dd005a
:1011240006027200044278006f426200344f980055
:101134003e4a9000e24f520030003e003e4a90008a
:101144000482fb004322dd00e6024200248b2000df
:101154000482420094427800454f98009e02900019
:10116400454290000483fb00554290000482fb003a
:101174004822dd0006027200840278000408200080
:1011840004826200e00f5200090032004e4a9000cf
:101194000482fb006202620004f0a7000402ea0079
:1011a4000402ea004f22de00044278000200370005
:1011b4004e4a900061426200445798000042eb009e
:1011c400545798009e029000654290000483fb00ef
:1011d400754290000482fb004822dd000602720082
:1011e4008402780074024700050178002100200081
:1011f40004007800c7fe0700e30037006ffe070015
:10120400e10037006dfe0700df0037001e0290008a
:1012140014429000eb4f520002003a008efe070089
:10122400d90037001e02900014429000ea4f520089
:1012340010003a000042eb00645798009e029000b0
:10124400654290000483fb00754290000482fb0019
:101254004822dd000602720084027800760247000c
:10126400050178001100200004007800a9fe0700a1
:10127400c50037001e02900014429000e14f520056
:10128400040032001e02900014429000e34f52000a
:10129400bb003a0014c0b300144798001e0290002b
:1012a400144278007f426200e24f5200ad003a00df
:1012b4009e029000254290000483fb00354290007a
:1012c4000482fb004822dd0006027200e00f520097
:1012d400a4003a009e029000454290000483fb0063
:1012e400554290000482fb004822dd000602720091
:1012f400044278006f426200544f98009e029000ae
:10130400454290000483fb00554290000482fb0098
:101314004822dd00060272008442780004c8b3004b
:1013240004c26200644f98005e4a9000e24f52008b
:101334008c003e001e02900014429000e34f5200c5
:1013440025003a006e4a9000e04f5200110032002e
:101354005e4a90008482fb005e4a90000482fb0097
:101364004322dd0066034200248b20000402430074
:10137400144278000414a000432bdd00858b200068
:1013840085024300844a78005e48900010fe0700fe
:10139400720037005e4a90008482fb005e4a90002f
:1013a4000482fb004322dd0066034200248b2000fc
:1013b40004024300144278000404a000432bdd001f
:1013c400858b200085024300844a78005e489000a3
:1013d40015fe0700610037006e4a9000e04f52008e
:1013e4002f0032005e4a90000482fb000402420097
:1013f4000403e8005e4a90000482fb004322dd00ff
:10140400e4024200248b2000048242001442900033
:101414008482fb004233dd0004a020000402430068
:10142400050a78005e4a90000483fb005e4a90003f
:101434000482fb004322dd00e6024200248b2000ec
:10144400048242009442780074cfb30004c2620064
:101454004333dd00858b200085024300844a7800f5
:101464005e4a90000483fb005e4a90000482fb0005
:101474004322dd00e6024200248b20000482420065
:1014840094427800d4cfb30004c262004333dd0039
:10149400858b200085024300844a78002f003700a2
:1014a4005e4a90000482fb000402420004037800b8
:1014b4005e4a90000482fb004322dd00e402420005
:1014c400248b200004824200144278008482fb00b2
:1014d40004802800848272004233dd0004a02000ce
:1014e40004024300050a78005e4a90008482fb00ef
:1014f4005e4a90000482fb004322dd006603420042
:10150400248b200004024300144278000424a00029
:10151400432bdd00858b200085024300844a78003c
:101524005e4a90000483fb005e4a90000482fb0044
:101534004322dd00e6024200248b200004824200a4
:1015440094427800e4cfb30004c262004333dd0068
:10155400858b200085024300844a78000042eb001a
:10156400144798001e429000e04f520002003a00d7
:10157400b9fd07000400370090fd070002003700a2
:1015840000c2eb00044f78001e427800044078004b
:101594000080fa00000006000400fa0064458000a0
:1015a400040f78001e027800144078000082fb00cb
:1015b4004722de000442780004407800aae8b7001d
:1015c40034458000e00f52000900320004458000d9
:1015d400e00f5200050032000545800044458000bc
:1015e400840078000040eb00050001009cfc07002b
:1015f4001e027800144278000446b200e04f520004
:1016040007003a00fbfd07000042780024479800d9
:101614002e429000e04f520004003d0001003700cc
:101624000000000065fd0700010037000000000015
:1016340094a4a9000080fa00000006000200fa0049
:1016440004a0200014427800044f7800a48a2000eb
:1016540014427800e14f52000a003a000445800029
:10166400e00f52000500320005458000444580002b
:101674008400780010c0b3000500010078fc070066
:101684003100370024458000e00f52002e00320064
:101694009e4278000582fb0035458000850f52008c
:1016a4000100360005027800144798001e4290009d
:1016b4000483fb0065458000244580000601780012
:1016c4008500780004007800a2fb0700254580000f
:1016d4001e4290000482fb000482420024458800dc
:1016e400354580001e4290000482fb0004825200b3
:1016f400344588001e427800e74f5200030036004c
:1017040034458000e00f52000f003a001e42900062
:101714009e4f52000b00310028fd07000445800055
:10172400e00f52000500320005458000444580006a
:10173400840078000040eb000500010048fc07002d
:101744000100370044fd07000080fa000000060095
:101754000200fa00b489200014427800e04f5200dd
:1017640007003200c4892000144278000482fb0080
:10177400b42488000042eb00044078009be8b700e2
:1017840034458000e00f52002900320034458000c7
:10179400e80f52000100360084002000044f780056
:1017a4001e4278000483fb001545800074458000c8
:1017b40006017800850078000400780065fb0700c6
:1017c400354580001e4378000682fb0004825200e7
:1017d40034458800154580001e4078000082fb00d7
:1017e400048242001445880034458000e00f520012
:1017f4000a003a001e427800e84f520007003a00ff
:10180400f489200014427800e04f520003003200b3
:1018140014c0b300044078009ee8b7009e427800ec
:101824000582fb000400780013fd07001800370050
:10183400e489200014427800e04f5200070032008f
:101844000000eb000cfd07000042eb0004407800b0
:101854009ee8b70002fc07000d003700a48a2000b0
:1018640014427800e04f520009003a000445800019
:10187400e00f520005003200054580004445800019
:101884008400780010c0b30005000100f4fb0700d9
:101894000080fa00000006000600fa0054248000cc
:1018a40061026200e00f520003003200f7fb070000
:1018b40014002000542488005524800004082000cb
:1018c40004826200e00f5200120032001400200073
:1018d400040f78000a003700a54a20001e02780091
:1018e4000402420004824200140798009e02900001
:1018f400150278000410a100840a78001e0fe80085
:101904001e027800e20f5200f3ff340004082000a6
:10191400542488005424800068026200e00f5200be
:101924006000320095248000040f200004826200cd
:10193400e00f520018003a0094248000680262000c
:10194400e00f520014003a00045080004a22de00e6
:101954006f426200444798004e429000ed4f52009f
:1019640002003a000cff0700090037004e429000c5
:10197400e94f5200060032004e429000e14f5200ff
:1019840002003a002dff0700010037008bfc07001e
:1019940085fc07004100370095248000040f2000d7
:1019a40004826200e00f520006003a009424800092
:1019b40068026200e00f52000200320064ff070078
:1019c40036003700942480004422de006f42620017
:1019d4000482fb00e00f52003000340094248000a5
:1019e4004422de006f4262000482fb00e20f5200d8
:1019f4002a003c009424800068026200e00f520038
:101a040013003200942480004422de006f426200fe
:101a14000482fb004322dd00e6024200248b200006
:101a240004824200144278000482fb0062026200d5
:101a3400e00f520019003200942480004422de009a
:101a44006f4262000440780061fc07001300370015
:101a5400942480004422de006f4262000482fb0072
:101a64004322dd00e6024200248b2000048242006f
:101a7400144278000482fb00610262000442780090
:101a8400e04f520005003200942480004422de001e
:101a94006f4262000440780063fc07008400200069
:101aa400542488005424800064026200e00f520031
:101ab4000200320044002000542488007504800091
:101ac4000404200004826200e00f5200010032008e
:101ad4008ec0a9000080fa00000006000000fa0091
:101ae400d489200014427800044078000080fa0071
:101af400000006000200fa00004f78009e427800c1
:101b04000582fb004322dd008482e800248b200050
:101b14000482420014027800040078000080fa0075
:101b2400000006000800fa004047980031079800ba
:101b3400d489200014427800e04f5200390032006a
:101b44004e4090004e000700004278000404a200ba
:101b5400e04f5200330032004e4290000482fb00fa
:101b64004322dd00e402420004a02000048f42006e
:101b74004e4290000482fb004322dd00e602420054
:101b8400248b200004824200144278000482fb006b
:101b94006802620004f0a7000402ea000402ea00fa
:101ba4004f22de00244798009e0278000042eb009a
:101bb400944298002e429000e04f520006003200fa
:101bc400be02900004802c00848272001e02780001
:101bd400050a780005003700be0290000480280042
:101be400848272001e027800050a78004e4290003a
:101bf4008482fb004e4290000482fb004322dd00fd
:101c040066034200248b200004024300144278003f
:101c14000434a200432bdd00858b200085024300a1
:101c2400844a78000080fa00000006000200fa00ee
:101c3400004f78009e4278000582fb0004024200b7
:101c44000402e800c222dd0004a020000482420055
:101c5400140278004f22de00044278000482fb0064
:101c640004f0a7000402ea000402ea004f22de00a6
:101c740004427800044078000080fa000000060066
:101c84000200fa00004f78009e4278000582fb00b3
:101c94004322dd00e6024200248b2000048242003d
:101ca400144278000482fb006202620004f0a70080
:101cb4000402ea000402ea004f22de000442780033
:101cc400044078000080fa00000006000400fa00d6
:101cd400004f7800110798009e4278000582fb00af
:101ce400c322dd00248b2000048242009402780089
:101cf4001e029000050a78009e4278000582fb00cf
:101d040004024200c222dd0004a02000048242003a
:101d140014427800044078000080fa0000000600b5
:101d24000200fa00004f78009e4278000582fb0012
:101d340004024200c222dd0004a02000048242000a
:101d4400140278004f22de00044278000482fb0073
:101d54000402e9004f22de000442780004407800c7
:101d64000080fa00000006000400fa0020479800f2
:101d74002e4290000482fb004322dd00e602420072
:101d8400248b200004824200144278000482fb0069
:101d94006402620004f0a7000402ea000402ea00fc
:101da4004f22de00044f78001e427800e04f5200bc
:101db400130032002e4290000482fb000402420011
:101dc400040378002e4290000482fb004322dd00cd
:101dd400e4024200248b2000048242001442780072
:101de4008482fb0004802c00848272004233dd0074
:101df40004a0200004024300050a78001200370002
:101e04002e4290000482fb00040242000403780086
:101e14002e4290000482fb004322dd00e4024200d3
:101e2400248b200004824200144278008482fb0048
:101e340004802800848272004233dd0004a0200064
:101e440004024300050a78002e4290008482fb00bd
:101e54002e4290000482fb004322dd006603420010
:101e6400248b200004024300144278000424a200be
:101e7400432bdd00858b200085024300844a7800d3
:101e84000080fa00000006000200fa00004f78000b
:101e94009e4278000582fb004322dd00e6024200f8
:101ea400248b200004824200144278000482fb0048
:101eb4006102620004f0a7000402ea000402ea00de
:101ec4004f22de0004427800044078000080fa00cb
:101ed400000006000800fa00000f780011079800bf
:101ee40022079800330798005dfa07002e0290003d
:101ef400044588001e027800244588001e029000d4
:101f0400344588003e029000444588000080fa0071
:101f1400000006000800fa00000f7800110798007e
:101f240022079800330798002e0290000445880089
:101f34003e029000444588001e0190009e009000df
:101f44001e00780073fb07000080fa000000060002
:101f54003600f800809fbe00829fbe00849fbe00b2
:101f6400869fbe003400f80000002000a001880015
:101f74000000fa0048fe07000080fa003400f9006f
:101f84004f03be004f02be004f01be004f00be0013
:101f94003600f900004006000200fa00000f780045
:101fa4001e027800a40290001e0278001402780039
:101fb4000400780005000100004278000440780025
:101fc4000080fa00000006000400fa00000f780008
:101fd400110798001e027800d40290001e027800b7
:101fe400140278009e0090000400780005000100af
:101ff40000027800040078000080fa000000060067
:102004000400fa00100798001e009000e2ff070089
:1020140000427800044f78001e009000deff0700a5
:1020240000427800144798009e4078001e409000bb
:102034006103070000027800040078000080fa00c1
:10204400000006000200fa00000f78001e0278006b
:10205400940290001e0278001402780004007800b4
:102064000500010000027800040078000080fa00f6
:10207400000006000400fa00000f780021479800d1
:102084001e027800b40290001e0278001402780048
:10209400ae40900004007800050001000080fa00c2
:1020a400000006000400fa00000f780011079800f1
:1020b4001e00900038030700004278008440780036
:1020c4001e007800ebff07001e0090002b030700a2
:1020d40000427800844078001e007800e5ff070085
:1020e4000080fa00000006000400fa00000f7800e7
:1020f40011079800080037001e029000144278006f
:10210400844078001e007800daff07001e02900069
:102114000402e800140798001e029000144278009c
:10212400e04f5200f4ff3a000080fa00000006007d
:102134000600fa00000f78001107980022079800a3
:102144000b0037002e02900014427800844078007f
:102154001e007800c7ff07002e0290000402e8006a
:10216400240798001e0290000402e9001407980056
:102174001e029000e00f5200f2ff3c000080fa00c3
:10218400000006000200fa00000f78001e0278002a
:10219400c40290001e027800140278000400780043
:1021a400050001000080fa00000006000400fa00a7
:1021b400100798001e029000040f78001e02780099
:1021c40014029000e00f52000200320014002000bc
:1021d4001800370041fe070000427800e04f52002b
:1021e400130032001e0278001402780004427800c2
:1021f4000440780024ff0700004278000404a20091
:10220400e04f52000a0032001e02780014027800e7
:102214000442780004407800c1fe070000427800c0
:10222400e04f520002003200140020000100370089
:102234000002eb00040078000080fa0000000600b1
:102244000600fa00200798002e029000040f780080
:102254001e02780014029000e00f52001a003200af
:102264001e027800940290001e027800340290004e
:102274008482420015437800264798008402e800cf
:102284001e027800350298001e027800b402900005
:102294001e02780024029000848f520008003a0045
:1022a4001e0278008002eb00150298001e027800de
:1022b400140278000442780004407800aafe070063
:1022c4002e429000220037002e009000b7ff070036
:1022d40000027800e00f5200fbff32009e82e8000b
:1022e4001e02780014027800044278008500780009
:1022f4000440780075fe07000042780034479800d7
:102304003e429000e04f52000f0032001e0278005f
:1023140014029000e00f52000b0032001e027800fd
:102324008002eb00350298003e4290008482fb005c
:102334001e027800250298002e009000c0ff0700be
:10234400004278000200370000000000deff370082
:10235400044078000080fa00000006000400fa003f
:10236400000f7800110798001e0078008fff070007
:1023740000027800e00f5200070032001e007800cf
:10238400afff0700004278009e029000844a780064
:1023940014002000010037000002eb000400780064
:1023a4000080fa00000006000400fa0010079800fc
:1023b4001e029000040f78001e0278004402900070
:1023c400e00f52000b0032001e027800e40290007d
:1023d4001e02780014027800044278008500780018
:1023e40004407800cffd07001e0278008002eb0055
:1023f400450298000080fa00000006000600fa007a
:1024040010079800414798001e029000040f7800be
:102414001e02780044029000e00f520013003200c4
:102424001e027800c40290001e027800640290002c
:10243400848242004e439000864a78008402e80079
:102444001e027800650298001e027800e4029000e3
:102454001e02780054029000848f52002e003a002d
:102464001e009000d0ff0700300037009bfd0700de
:1024740000427800e04f5200fcff32001e02780058
:10248400140278000442780004407800fcfd070040
:1024940000427800e04f5200f4ff3a001e02780038
:1024a400140278000442780004407800dffd07003d
:1024b40000427800e04f5200ecff3a001e02780020
:1024c40014027800044278000440780089fd070073
:1024d400000278009e027800c40298001e02780070
:1024e4008002eb00650298001e02780054029000fe
:1024f400e00f52000a0032001e02780044029000ed
:10250400e00f520008003200ce4090001e00900000
:10251400baff070005003700000000000300370081
:102524000000000001003700000000000080fa00f5
:10253400000006000800fa00000f78001107980058
:1025440022079800330798002e0290001e0a780094
:102554002e0290008002eb00150298002e029000db
:102564008002eb00450298002e0290009e0290002b
:10257400550298003e029000ae029000050a7800d1
:102584003e029000850d2100150298003e02900045
:10259400051b2100550298003e02900025122100df
:1025a400250298003e029000052021003502980083
:1025b4003e029000651d2100450298000080fa004b
:1025c400000006000000fa0084422800144278004b
:1025d40084407800808d2000a6fe0700a4422800d5
:1025e4001442780084407800808d2000a1fe07000a
:1025f400808d2000e3fe07000080fa000000060042
:102604000000fa00844228001442780084407800d4
:10261400808d200097fe070061c0b300808d2000ec
:1026240094fe0700b1422800808d2000aefe070012
:10263400808d2000d3fe07000080fa000000060011
:102644000000fa0094422800144278008440780084
:10265400808d200087fe0700808d2000c9fe0700c2
:102664000080fa00000006000200fa00808d2000bd
:1026740049fe070000427800044f78001e427800ab
:10268400e04f52000d003a008442280014427800c2
:1026940084407800808d200076fe07002d0107001d
:1026a4000002780084007800808d20007dfe070001
:1026b400808d2000b3fe0700110037001e42780011
:1026c400e14f52000d003a00844228001442780081
:1026d40084407800808d200066fe070022010700f8
:1026e4000002780084007800808d20006dfe0700d1
:1026f400808d2000a3fe070001003700d0ff0700f3
:102704000080fa00000006000200fa00808d20001c
:1027140021fe070000427800044f78001e42780032
:10272400e04f520008003a00844228001442780026
:1027340084407800808d20004efe0700808d2000ac
:1027440090fe07000c0037001e427800e14f520053
:1027540008003a008442280014427800844078003b
:10276400808d200043fe0700808d200085fe070039
:1027740001003700b2ff07000080fa0000000600e5
:102784000200fa00808d200003fe0700004278005a
:10279400044f78001e427800e04f52000b003a00cc
:1027a400844228001442780084407800808d200000
:1027b40030fe07008040eb00808d20002dfe0700d6
:1027c400808d20006ffe07000f0037001e42780046
:1027d400e14f52000b003a00844228001442780072
:1027e40084407800808d200022fe07008040eb00aa
:1027f400808d20001ffe0700808d200061fe0700f1
:10280400010037008eff07000080fa000000060078
:102814000200fa00808d2000dffd070000427800ee
:10282400044f78001e427800e04f520008003a003e
:10283400844228001442780084407800808d20006f
:102844000cfe0700808d20004efe07000c003700b0
:102854001e427800e14f520008003a0084422800ea
:102864001442780084407800808d200001fe070027
:10287400808d200043fe07000100370070ff070031
:102884000080fa00000006000200fa00243a8000ea
:102894000460a1000470a100243a8800838d200004
:1028a400a28c2000010420002000200021ff07004a
:1028b400d0a2a900d4a2a800c862a900cc62a90031
:1028c400c882a900cc82a900f0f707005e000700c7
:1028d400600107000100370000000000808d200027
:1028e400d8fd070000027800e00f5200faff320022
:1028f400808d2000a8fd070000427800044f780076
:102904009e4278000582fb006123b900f4fb2f008e
:10291400f5ff2f000602420087824a00560320007a
:1029240007002000860f5200878f5a0043003e00a4
:10293400046001003d003700400037003f003700cd
:102944003c0037003d0037003c0037003b003700b7
:102954003a003700390037003800370037003700b5
:1029640036003700350037003400370033003700b5
:102974003200370031003700300037002f003700b5
:102984002e0037002d0037002c0037002b003700b5
:102994002a003700290037002800370027003700b5
:1029a40026003700250037002400370023003700b5
:1029b4002200370017003700200037001f003700bf
:1029c400180037001d0037001c0037001b003700bb
:1029d4001a003700110037001800370017003700bd
:1029e40016003700150037001400370013003700b5
:1029f4001200370011003700100037000f003700b5
:102a04000e0037000d00370000003700edfe070010
:102a14000c00370014ff07000a003700f8fe070017
:102a24000800370056ff07000600370036ff07008e
:102a34000400370076ff07000200370000ff07009c
:102a440000000000a5ff37000000fa00d002a80033
:102a5400d022a8000002eb00444788000002eb00eb
:102a6400244788000002eb00344788000002eb0092
:102a7400041988000002eb00141988000002eb001e
:102a8400241988000002eb004419880021a3a9003e
:102a9400041980000480a1000490a1000419880096
:102aa400041980000450a0000460a0000470a00079
:102ab400041988002043a8001419800004d0a10040
:102ac40004e0a10004f0a100141988002343a90024
:102ad400141980000420a0000430a0000440a000c9
:102ae4000450a000141988002223a9002203a9007d
:102af40025e3a9002519800004f021000482720056
:102b040024198800f4c3b3000440780024e3b70018
:102b140028e3a9004519800004fe2f000482620006
:102b24006400b300441988000082eb006419880033
:102b34002cc3a9002ce3a9000002eb00841988002f
:102b440085a0a90095a0a80021e3a8000080fa00b0
:102b5400000006000000fa0024478000040078000a
:102b64000080fa00000006000000fa0034478000ec
:102b7400040078000080fa0000000600849fbe0074
:102b84003400f80004002000a40188000200fa00c8
:102b94000419800061026200e00f52003b00320021
:102ba4000002eb00040f7800041880001e0f42009e
:102bb400141880001e0f4200241880001e0f4200cb
:102bc400341880001e0f4200441880001e0f42007b
:102bd400541880001e0f4200641880001e0f42002b
:102be400741880001e0f4200841880001e0f4200db
:102bf400941880001e0f4200a41880001e0f42008b
:102c0400b41880001e0f4200c41880001e0f42003a
:102c1400d41880001e0f4200e41880001e0f4200ea
:102c2400f41880001e0f42001e0278004422de00c9
:102c3400040f780044478000e00f52000a003a0075
:102c44001e027800244788001400200044478800ae
:102c54004519800004fe2f00048262007400b30052
:102c640044198800090037001e02780034478800a0
:102c74000002eb00444788004519800004fe2f0041
:102c8400048262006400b3004419880085a0a9008e
:102c94000080fa003400f9004f02be000040060034
:102ca4000400fa00004f7800110798001e427800d3
:102cb400e04f520005003a001e0290000532280041
:102cc400050a780044002000290037001e427800dd
:102cd400e14f520005003a001e02900045322800e0
:102ce400050a780004032000210037001e42780002
:102cf400e24f520005003a001e02900045352800bc
:102d0400050a7800a4012000190037001e4278004b
:102d1400e34f520005003a001e029000e5362800f9
:102d2400050a7800c4012000110037001e42780013
:102d3400e44f520005003a001e029000a538280016
:102d4400050a780064022000090037001e4278005a
:102d5400e54f520005003a001e029000053b280092
:102d6400050a780084072000010037000082eb0088
:102d7400040078000080fa00000006000200fa0057
:102d8400000f78001e0278000442780004407800a6
:102d94000080fa00000006000200fa00000f78002c
:102da4001e0278004822de000442780004407800c5
:102db4000080fa00000006000200fa00004f7800cc
:102dc400114798001e4290000482fb00c822dd00d7
:102dd4001e4378000682fb0004827200040078001f
:102de4000080fa00000006000200fa00000f7800dc
:102df4003afb070000427800e04f52001100320015
:102e04001e02780004427800044078001efc07008b
:102e1400004278000404a200e04f5200090032008e
:102e24001e0278000442780004407800bcfb0700ce
:102e340000427800e04f52000200320014002000eb
:102e4400010037000002eb00040078000080fa0063
:102e5400000006000000fa0004102000b40c8800f2
:102e6400f4332000a40c88000002eb00840c8800da
:102e74000002eb00940c8800840c800004a0a000e5
:102e840004b0a00004c0a000840c88009061a800d5
:102e9400840c80000400a1000410a0000420a00001
:102ea400840c8800940c8000f401b300940c880016
:102eb4001536800004fe2f00048262002401b30052
:102ec4001436880015368000f40f2e0084826200c8
:102ed4000430210004827200143688000080fa0055
:102ee400000006000200fa00000f78000080fa00db
:102ef400000006000200fa00000f78000080fa00cb
:042f040000000600c3
:020000040000fa
:102f0800000a00001800000000000000000800008f
:102f1800ac00000000000000ac0800001e0000002b
:102f2800020000000008080008000000000000007f
:102f3800000000000000100008110800010a00004d
:102f4800001b08005b08400040000000ea08000081
:102f58000200000000000000ca0800001a0000007b
:102f680000000000e4080000060000000000000067
:102f7800ec0800000200000002000000da820000f5
:042f88000000000045
:020000040000fa
:102f8c000400fa00100798009e0290004542900041
:102f9c000483fb00554290000482fb004822dd00b4
:102fac0006027200044f780000c2eb000440780067
:082fbc000080fa00000006008d
:00000001FF